:10000000020899AD07E4FCECC39D500DC2801200BC
:100010001AD28012001A0C80EE22E4FFFE0FBF00FD
:10002000010EBE13F8BF88F522EFDFBF7FB77BE775
:01003000EBE4
:10080000E4F508FBAF08EF90002993F5A090002DC8
:10081000E493B5A0057F0312000390002EE493B586
:10082000A00B7B0190002EE49365A060F790002F51
:10083000E493B5A014EB640170047B028002E4FB36
:1008400090002FE49365A060F7900030E493B5A08A
:1008500015EB640270057F05120003E4FB90003085
:10086000E49365A060F70508AF08EF64047095F5A0
:030870000880916C
:0C089900787FE4F6D8FD758108020800A5
:00000001FF
